:100000000C946E000C9496000C9496000C94960040
:100010000C9496000C9496000C9496000C94960008
:100020000C9496000C9496000C9496000C949600F8
:100030000C9496000C9496000C9496000C949600E8
:100040000C945C110C9496000C942A110C940411DD
:100050000C9496000C9496000C9496000C949600C8
:100060000C9496000C9496000000000023002600DB
:100070002900A70000000008500201000003040747
:1000800000000000000000000000510000000025FA
:100090000028002B00A90000000000240027002AEF
:1000A00000A800040404040404040402020202027E
:1000B0000203030303030305050505050505010206
:1000C00004081020408001020408102001020408E6
:1000D00010200208010410204000A61111241FBEA8
:1000E000CFEFD8E0DEBFCDBF11E0A0E0B1E0E0EDA2
:1000F000F8E302C005900D92AC37B107D9F725E0BF
:10010000ACE7B1E001C01D92A839B207E1F710E0F9
:10011000CEE6D0E004C02197FE010E94261CCD3619
:10012000D107C9F70E94E2110C94661C0C940000E0
:1001300080E991E00895AF92BF92CF92DF92EF9263
:10014000FF920F931F93CF93DF936C017B018B0181
:10015000040F151FEB015E01AE18BF08C017D107D1
:1001600059F06991D601ED91FC910190F081E02D5B
:10017000C6010995892B79F7C501DF91CF911F91B0
:100180000F91FF90EF90DF90CF90BF90AF900895C8
:10019000FC01538D448D252F30E0842F90E0821B8D
:1001A000930B541710F0CF96089501970895FC0112
:1001B000918D828D981761F0A28DAE0FBF2FB11D6A
:1001C0005D968C91928D9F5F9F73928F90E00895C2
:1001D0008FEF9FEF0895FC01918D828D981731F07C
:1001E000828DE80FF11D858D90E008958FEF9FEFD0
:1001F0000895FC01918D228D892F90E0805C9F4FA6
:10020000821B91098F73992708958EEE94E00E94C6
:10021000F90021E0892B09F420E0822F089580E085
:1002200090E0892B29F00E94050181110C940000B7
:100230000895FC01A48DA80FB92FB11DA35ABF4F7B
:100240002C91848D90E001968F739927848FA689D5
:10025000B7892C93A089B1898C9180648C93938DFC
:10026000848D981306C00288F389E02D80818F7DEC
:1002700080830895EF92FF920F931F93CF93DF93A4
:10028000EC0181E0888F9B8D8C8D981316C0E889D6
:10029000F989808185FF11C0EE89FF896083E88933
:1002A000F98980818064808381E090E0DF91CF9143
:1002B0001F910F91FF90EF900895F62E0B8D10E097
:1002C0000F5F1F4F0F731127E02E8C8D8E110CC006
:1002D0000FB607FCFACFE889F989808185FFF5CF51
:1002E000CE010E941901F1CFEB8DEC0FFD2FF11D16
:1002F000E35AFF4FF0820B8FEA89FB89808180628D
:10030000D2CFCF93DF93EC01888D8823B9F0AA89EF
:10031000BB89E889F9898C9185FD03C0808186FDC0
:100320000DC00FB607FCF7CF8C9185FFF2CF80810F
:1003300085FFEDCFCE010E941901E9CFDF91CF916A
:10034000089590E0FC01EC58FF4F2491FC01E25429
:10035000FF4F3491FC01ED55FF4FE491EE23C1F1C5
:10036000222339F02330E9F090F4213001F12230DA
:1003700011F1F0E0EE0FFF1FE859FF4FA591B49186
:10038000EC91E32381E090E029F580E008952730A7
:10039000A9F02830C9F0243061F7809180008F7D6A
:1003A00003C0809180008F7780938000E2CF84B576
:1003B0008F7784BDDECF84B58F7DFBCF8091B00079
:1003C0008F778093B000D5CF8091B0008F7DF9CF2B
:1003D00080E090E008953FB7F89480918301909178
:1003E0008401A0918501B091860126B5A89B05C026
:1003F0002F3F19F00196A11DB11D3FBFBA2FA92FA4
:10040000982F8827BC01CD01620F711D811D911DA0
:1004100042E0660F771F881F991F4A95D1F708950C
:100420008F929F92AF92BF92CF92DF92EF92FF9204
:100430004B015C010E94EB016B017C010E94EB010E
:100440006C197D098E099F09683E734081059105ED
:10045000A8F321E0821A9108A108B10888EEC80E1D
:1004600083E0D81EE11CF11C81149104A104B104A5
:1004700029F7FF90EF90DF90CF90BF90AF909F90C3
:100480008F9008952FB7F89460917F01709180014B
:1004900080918101909182012FBF08954F925F92C8
:1004A0006F927F929F92AF92BF92CF92DF92EF9224
:1004B000FF920F931F93CF93DF9300D01F92CDB77E
:1004C000DEB7F0908B0580918E0590918F05A091FD
:1004D0009005B0919105892B8A2B8B2BD9F00E9426
:1004E000EB010091EA041091EB042091EC043091AF
:1004F000ED04601B710B820B930B00918E05109124
:100500008F05209190053091910560177107820742
:100510009307C8F20E94EB016093EA047093EB0426
:100520008093EC049093ED04E0919605F09197058B
:10053000309759F040919205509193056091940540
:10054000709195058F2D0995F82E0091E804109172
:10055000E9044F2C512C712C612C0115110509F463
:100560005EC0D8011C96EC901C9780918C059091F0
:100570008D058436910510F41C961C92D801ED91DE
:10058000FC91A280B38019821A821B82FF2089F11C
:10059000F8013696D12CC12C2191222319F1928099
:1005A000992001F130E050E040E02F5F3F4F4F4F86
:1005B0005F4FC301B2010E94E01B9B01AC01892D7A
:1005C00090E0B0E0A0E0BC01CD016F5F7F4F8F4FA6
:1005D0009F4F0E94E01BA1E0B0E0AC0FBD1FAC0D2F
:1005E000BD1D8C93BFEFCB1ADB0A83E0C816D10484
:1005F00099F6D8011D964D915C911E9712966D91BA
:100600007C919E012F5F3F4FC801F5010995D801EC
:100610001C96EC921C9714960D911C919ECF809184
:10062000E6049091E7048C010F5F1F4F1093E704DD
:100630000093E6044997B4F10E944202C090E2049C
:10064000D090E304E090E404F090E5049B01AC0159
:100650002C193D094E095F0921F421E030E040E00A
:1006600050E088EE93E0089FB001099F700D189F3D
:10067000700D1124072E000C880B990B0E94041C8E
:1006800030938D0520938C051092E7041092E604B8
:100690000E9442026093E2047093E3048093E404B6
:1006A0009093E5040F900F900F90DF91CF911F91E1
:1006B0000F91FF90EF90DF90CF90BF90AF909F9001
:1006C0007F906F905F904F9008950F931F93CF93FB
:1006D000DF9320917D012F5F322F377030937D01A2
:1006E00020FF2BC020E831FD2064347009F0206227
:1006F000205FFC01EC01239600E011E06485662395
:1007000029F070E0C8010E94F01B6F5F6187322FF3
:10071000369F030E30E0311D1124311110C01682B6
:10072000662311F0615061873196EC17FD0731F7B0
:10073000DF91CF911F910F91089520E0D4CF3150D8
:100740003683EECF4F925F926F927F928F92AF92ED
:10075000BF92CF92DF92EF920F931F93CF93DF93CD
:100760003C01EB010E94EB01F30127853089621BFC
:10077000730B6A307105B0F3F894E881F9817BB1AD
:1007800078606BB1677F6BB9CA848F812C2D281B71
:10079000822F2F83BF844A805B801D850C85DE8479
:1007A0001F5F0F5FD3949E813885A984EB844181BC
:1007B000D20120E0C32F522F322F31814427889459
:1007C0003111380F08F43FEF8195889410FD430FE5
:1007D0004795889411FD430F4795889412FD430F68
:1007E0004795889413FD430F4795889414FD430F54
:1007F0004795889415FD430F4795889416FD430F40
:100800004795889417FD430F47958894232F11111E
:10081000242F8C0D422F002C7BB900C047FF6BB9F1
:1008200030812227889400C000C0002C6BB93111A0
:10083000390F00C0002C7BB900C046FF6BB908F42B
:100840003FEF9195889400C000C0002C6BB900FD6B
:10085000230F00C0002C7BB900C045FF6BB9279562
:10086000889401FD230F00C000C0002C6BB92795B0
:10087000889400C0002C7BB900C044FF6BB902FD16
:10088000230F2795889400C000C0002C6BB903FD8E
:10089000230F00C0002C7BB900C043FF6BB9279524
:1008A000889404FD230F00C000C0002C6BB927956D
:1008B000889400C0002C7BB900C042FF6BB905FDD5
:1008C000230F2795889400C000C0002C6BB906FD4B
:1008D000230F00C0002C7BB900C041FF6BB92795E6
:1008E000889407FD230F00C000C0002C6BB927952A
:1008F000889400C0002C7BB900C040FF6BB9432F27
:100900000111422F9A0D00C000C0002C6BB900C02D
:1009100000C0002C7BB900C047FF6BB93281222791
:10092000889400C000C0002C6BB931113C0F00C08E
:10093000002C7BB900C046FF6BB908F43FEFEB0D0C
:10094000F11D00C000C0002C6BB9D0FC230F00C00B
:10095000002C7BB900C045FF6BB927958894D1FC6A
:10096000230F00C000C0002C6BB92795889400C0ED
:10097000002C7BB900C044FF6BB9D2FC230F279534
:10098000889400C000C0002C6BB9D3FC230F00C0BA
:10099000002C7BB900C043FF6BB927958894D4FC29
:1009A000230F00C000C0002C6BB92795889400C0AD
:1009B000002C7BB900C042FF6BB9D5FC230F2795F3
:1009C000889400C000C0002C6BB9D6FC230F00C077
:1009D000002C7BB900C041FF6BB927958894D7FCE8
:1009E000230F00C000C0002C6BB92795889400C06D
:1009F000002C7BB900C040FF6BB9432FD110422FB0
:100A0000C19500C000C0002C6BB9CE0D00C000C065
:100A10007BB900C047FF6BB931812227889400C0A1
:100A200000C0002C6BB93111380F00C0002C7BB90D
:100A300000C046FF6BB908F43FEF8195889400C071
:100A400000C0002C6BB910FD230F00C0002C7BB937
:100A500000C045FF6BB92795889411FD230F00C096
:100A600000C0002C6BB92795889400C0002C7BB97E
:100A700000C044FF6BB912FD230F2795889400C076
:100A800000C0002C6BB913FD230F00C0002C7BB9F4
:100A900000C043FF6BB92795889414FD230F00C055
:100AA00000C0002C6BB92795889400C0002C7BB93E
:100AB00000C042FF6BB915FD230F2795889400C035
:100AC00000C0002C6BB916FD230F00C0002C7BB9B1
:100AD00000C041FF6BB92795889417FD230F00C014
:100AE00000C0002C6BB92795889400C0002C7BB9FE
:100AF00000C040FF6BB9432F1111422F8C0D00C075
:100B000000C0002C6BB9119709F086CE20EE31E0C1
:100B1000D2010E942C1CDC01CB01F4E0B695A79514
:100B200097958795FA95D1F730E020E0B901EAE989
:100B30004E9E040C611D5E9E600D711D1124650D9D
:100B4000711D860F971FA11DB11D893E43E09407BB
:100B5000A105B10508F434C0885E9340A109B1092C
:100B600042E0B695A795979587954A95D1F747E0C6
:100B7000849F080E211D949F200D311D1124290FE3
:100B8000311D60917C0170E0860F971F820F931FCB
:100B900040917F01509180016091810170918201AB
:100BA000292F3327420F531F611D711D40937F0171
:100BB00050938001609381017093820180937C0146
:100BC00078940E94EB01F301708B6787DF91CF91DE
:100BD0001F910F91EF90DF90CF90BF90AF908F90CB
:100BE0007F906F905F904F900895539A08950F9360
:100BF0001F93CF93DF93CDB7DEB762970FB6F8940C
:100C0000DEBF0FBECDBF8C01F901DC011C968C91BB
:100C10007A8369835C834B835E834D8390819D8758
:100C200091819E8792819F878130F1F4CE01019658
:100C30000E94650383E0888B1A8A198AD801ED9196
:100C4000FC910484F585E02DBE016F5F7F4FC801E4
:100C5000099562960FB6F894DEBF0FBECDBFDF9147
:100C6000CF911F910F9108951C861B861A861986B5
:100C700018861F82DFCF0F931F93CF93DF93CDB7DB
:100C8000DEB762970FB6F894DEBF0FBECDBF8C0102
:100C9000F901DC011C968C917A8369835C834B8318
:100CA0005E834D8390819D8791819E8792819F87EE
:100CB0008130E9F4CE0101960E946503188A1A8AF0
:100CC000198AD801ED91FC910484F585E02DBE01CF
:100CD0006F5F7F4FC801099562960FB6F894DEBF2B
:100CE0000FBECDBFDF91CF911F910F9108951C864C
:100CF0001B861A86198618861F82E0CFE8EAF1E083
:100D0000108211821282339684E0E23DF807C1F727
:100D10000895E0910201F0910301EA30F10508F035
:100D200054C1ED55F94F8FEF90E09093A30180935C
:100D3000A2011092A5011092A4019093A7018093A3
:100D4000A6010C94261CAD06EB07DC08280A120B42
:100D5000DE0B5E0D1E0ED80E5C0FE8EAF1E082EDB0
:100D600094E010821182128233968E179F07C9F782
:100D70008FEF8093140210921502809316028093D5
:100D80001102109212028093130280930E021092AD
:100D90000F028093100280930B0210920C0280933A
:100DA0000D02809308021092090280930A02809338
:100DB0002F02109230028093310280932C02109205
:100DC0002D0280932E028093260210922702809398
:100DD000280280932302109224028093250280939C
:100DE000290210922A0280932B02809363041092AE
:100DF000640480936504809351041092520480939C
:100E000053048093540410925504809356048093A5
:100E1000690410926A0480936B04809366041092B4
:100E200067048093680480934E0410924F0480936B
:100E3000500480934B0410924C0480934D04809393
:100E40006C0410926D0480936E0480936F04109272
:100E50007004809371048093480410924904809335
:100E60004A0480933F04109240048093410480938D
:100E70003C0410923D0480933E0480931B04109226
:100E80001C0480931D04809318041092190480930D
:100E90001A0480935F021092600280936102809333
:100EA0005C0210925D0280935E0280933B0210927E
:100EB0003C0280933D028093380210923902809365
:100EC0003A0280933E0210923F0280934002809348
:100ED000590210925A0280935B028093A1021092F1
:100EE000A2028093A30280931E0410921F04809399
:100EF00020048093390410923A0480933B04809339
:100F00005602109257028093580280932104109247
:100F10002204809323048093D6031092D7038093F6
:100F2000D8038093D3031092D4038093D503809386
:100F3000C4031092C5038093C6038093A402109249
:100F4000A5028093A6028093B3021092B40280930C
:100F5000B5028093B6021092B7028093B8028093D4
:100F600004031092050380930603809301031092FB
:100F70000203809303038093160310921703809358
:100F8000180380936103109262038093630380933C
:100F90007603109277038093780380937303109203
:100FA0007403809375038093C1031092C2038093EE
:100FB000C303809364031092650380936603809358
:100FC0001303109214038093150380910001809302
:100FD0008B050C944E02E8EAF1E082ED94E0108279
:100FE0001182128233968E179F07C9F78FEF809375
:100FF000990410929A0480939B0480937804109231
:10100000790480937A0480933F0410924004809383
:1010100041048093930410929404809395048093E8
:101020007E0410927F048093800480933904109290
:101030003A0480933B048093DE011092DF01809399
:10104000E001809338021092390280933A02809333
:10105000FF0110920002809301028093E40110923C
:10106000E5018093E6018093F9011092FA018093E3
:10107000FB0180933E0210923F02809340028093D6
:101080009E0210929F028093A0028093B60210925B
:10109000B7028093B80280930103109202038093F9
:1010A00003038093190310921A0380931B03809308
:1010B000610310926203809363038093760310921E
:1010C0007703809378038093C1031092C2038093C7
:1010D000C3038093D9031092DA038093DB038093D8
:1010E000DC031092DD038093DE0380937204109280
:1010F0007304809374048093630410926404809357
:101100006504809351041092520480935304809399
:10111000060410920704809308048093EE03109253
:10112000EF038093F00380930C0410920D048093DE
:101130000E0480934B0410924C0480934D048093D2
:101140006F0410927004809371048093A204109233
:10115000A3048093A404809383021092840280935A
:101160008502809386021092870280938802809382
:10117000890210928A0280938B0280938C021092D3
:101180008D0280938E0280936E0210926F02809384
:10119000700280936B0210926C0280936D028093B8
:1011A0007102109272028093730280937402109203
:1011B00075028093760209CFE8EAF1E0108211828D
:1011C0001282339684E0E23DF807C1F78FEF8093F7
:1011D000140210921502809316028093110210924D
:1011E00012028093130280930E0210920F028093DA
:1011F000100280930B0210920C0280930D028093D8
:101200002C0210922D0280932E0280936B0210927A
:101210006C0280936D0280938C0210928D028093F9
:101220008E028093740210927502809376028093EE
:101230007102109272028093730280936E02109278
:101240006F0280937002809368021092690280930B
:101250006A0280936502109266028093670280930F
:101260003403109235038093360380934303109226
:101270004403809345038093E6021092E702809333
:10128000E8028093E9021092EA028093EB028093D5
:10129000EC021092ED028093EE028093EF02109226
:1012A000F0028093F102809325031092260380932D
:1012B0002703809352031092530380935403809327
:1012C00088031092890380938A0380938B03109282
:1012D0008C0380938D0380938E0310928F038093F1
:1012E00090038093910310929203809393038093D1
:1012F000F4031092F5038093F6038093F1031092A8
:10130000F2038093F3038093EE031092EF03809334
:10131000F0038093EB031092EC038093ED03809332
:101320000C0410920D0480930E0480934B041092D1
:101330004C0480934D048093540410925504809380
:101340005604809351041092520480935304809366
:101350004E0410924F0480935004809348041092DE
:10136000490480934A048093450410924604809374
:10137000470480936C0410926D0480936E048093F4
:10138000FB021092FC028093FD02809319031092DD
:101390001A0380931B03809361031092620380936E
:1013A0006303809373031092740380937503809397
:1013B0007C0310927D0380937E0380935E031092E2
:1013C0005F0380936003809316031092170380934A
:1013D00018038093040310920503809306038093FF
:1013E0003B0210923C0280933D0280933E02109299
:1013F0003F02809340028093410210924202809308
:1014000043028093470210924802809349028093DE
:101410003C0410923D0480933E0480933904109262
:101420003A0480933B0480933604109237048093EF
:1014300038048093300410923104809332040E9467
:101440004E0262E370E080E090E00E941002BDCDA9
:10145000E8EAF1E0108211821282339684E0E23DE4
:10146000F807C1F78FEF80930E0210920F0280935E
:10147000100280932F0210923002809331028093E9
:1014800068021092690280936A0280930B021092A4
:101490000C0280930D0280938C0210928D02809337
:1014A0008E028093890210928A0280938B0280932D
:1014B000710210927202809373028093260210923E
:1014C0002702809328028093290210922A02809397
:1014D0002B0280932C0210922D0280932E02809377
:1014E0006B0210926C0280936D02809369041092DB
:1014F0006A0480936B0480936C0410926D04809353
:101500006E0480935104109252048093530480938C
:10151000060410920704809308048093EE0310924F
:10152000EF038093F0038093EB031092EC0380931E
:10153000ED0380930F0410921004809311048093A4
:1015400048041092490480934A048093090410923D
:101550000A0480930B0480930C0410920D04809372
:101560000E0480934B0410924C0480934D0480939E
:101570004504109246048093470480939F04109280
:10158000A0048093A1048093750410927604809344
:1015900077048093530210925402809355028093F3
:1015A0005602109257028093580280939E02109226
:1015B0009F028093A0028093B9021092BA02809396
:1015C000BB028093FE021092FF028093000380937F
:1015D0002104109222048093230480932404109207
:1015E0002504809326048093D9031092DA03809314
:1015F000DB038093BE031092BF038093C0038093EC
:10160000790310927A0380937B0380935E03109298
:101610005F03809360038093190310921A038093F1
:101620001B03D3CCE8EAF1E01082118212823396D8
:1016300084E0E23DF807C1F78FEF8093110210922A
:10164000120280931302809323021092240280934B
:101650002502809374021092750280937602809323
:101660008602109287028093880280936E02109205
:101670006F028093700280936502109266028093DD
:1016800067028093660410926704809368048093D5
:1016900054041092550480935604809303041092CE
:1016A0000404809305048093F1031092F203809365
:1016B000F30380934E0410924F0480935004809360
:1016C0004504109246048093470480934B04109283
:1016D0004C0480934D0480936B0210926C028093B3
:1016E0006D028093BC021092BD028093BE02809373
:1016F000FB021092FC028093FD028093DC031092A7
:10170000DD038093DE0380937C0310927D0380933E
:101710007E038093BB031092BC038093BD03809330
:101720005B0310925C0380935D0380931C03109213
:101730001D0380931E038093B9021092BA02809316
:10174000BB028093B3021092B4028093B5028093DF
:10175000B6021092B7028093B8028093D903109218
:10176000DA038093DB038093D3031092D403809336
:10177000D5038093D6031092D7038093D803809328
:10178000C4031092C5038093C60380937303109221
:1017900074038093750380936403109265038093B0
:1017A00066038093130310921403809315038093B0
:1017B0000403109205038093060307CCE8EAF1E0E6
:1017C000108211821282339684E0E23DF807C1F75D
:1017D0008FEF80932302109224028093250280933E
:1017E00074021092750280937602809383021092A5
:1017F0008402809385028093D4021092D502809354
:10180000D6028093E3021092E4028093E502809373
:101810003403109235038093360380934303109270
:10182000440380934503809394031092950380931F
:1018300096038093A3031092A4038093A50380933F
:10184000F4031092F5038093F6038093030410923F
:1018500004048093050480935404109255048093EB
:1018600056048093F7031092F8038093F903809352
:10187000F1031092F2038093F30380938602109297
:101880008702809388028093800210928102809365
:10189000820280938C0210928D0280938E0280933C
:1018A0008F02109290028093910280939202109284
:1018B00093028093940280939502109296028093F3
:1018C00097028093CB021092CC028093CD0280933A
:1018D000EC021092ED028093EE0280932B031092A3
:1018E0002C0380932D0380934C0310924D0380931F
:1018F0004E0380938B0310928C0380938D0380930F
:10190000AC031092AD038093AE038093EB0310926F
:10191000EC038093ED038093E8031092E903809336
:10192000EA038093DF031092E0038093E103809346
:10193000E2031092E3038093E4038093E5031092A3
:10194000E6038093E7038093B8031092B903809372
:10195000BA0380937F031092800380938103809366
:1019600058031092590380935A0380931F031092D7
:101970002003809321038093F8021092F902809350
:10198000FA028093BF021092C0028093C10280933A
:1019900098021092990280939A028093C502109245
:1019A000C6028093C7028093F2021092F3028093E2
:1019B000F4028093250310922603809327038093DB
:1019C00085031092860380938703809352031092BD
:1019D0005303809354038093B2031092B303809314
:1019E000B4038093B6021092B7028093B80280933A
:1019F000010310920203809303038093C1031092AA
:101A0000C2038093C303809376031092770380937D
:101A10007803809316031092170380931803809322
:101A20006103109262038093630380935B031092BF
:101A30005C0380935D038093190310921A038093D3
:101A40001B0380935E0310925F0380936003809377
:101A50001C0310921D0380931E03809313031092A6
:101A60001403809315038093100310921103809345
:101A7000120380930D0310920E0380930F03809343
:101A80006A0310926B0380936C038093640310923B
:101A900065038093660380936703109268038093C5
:101AA00069038093A1021092A2028093A302809303
:101AB000D6031092D7038093D80387CAE8EAF1E0EF
:101AC000108211821282339684E0E23DF807C1F75A
:101AD0008FEF809311021092120280931302809371
:101AE0002602109227028093280280936E021092A1
:101AF0006F02809370028093890210928A02809311
:101B00008B028093CB021092CC028093CD02809303
:101B10008F0210929002809391028093680210923B
:101B2000690280936A02809332021092330280939A
:101B3000340280930502109206028093070280937C
:101B40006604109267048093680480935104109295
:101B50005204809353048093090410920A048093E2
:101B60000B048093EE031092EF038093F0038093B5
:101B7000AC031092AD038093AE038093E803109200
:101B8000E9038093EA03809345041092460480930E
:101B900047048093720410927304809374048093BA
:101BA0000F0410921004809311048093FF0110928F
:101BB00000028093010280935F0210926002809382
:101BC0006102809378041092790480937A04809360
:101BD00018041092190480931A0480939B021092A7
:101BE0009C0280939D028093DC031092DD0380931E
:101BF000DE038093BE031092BF038093C0038093E3
:101C0000B9021092BA028093BB0280930103109232
:101C100002038093030380937603109277038093EB
:101C2000780380936103109262038093630380932F
:101C300016031092170380931803C7C9E8EAF1E06E
:101C4000108211821282339684E0E23DF807C1F7D8
:101C50008FEF8093260210922702809328028093B0
:101C6000290210922A0280932B0280932C02109258
:101C70002D0280932E0280932F02109230028093C7
:101C800031028093710210927202809373028093EA
:101C90006E0210926F028093700280936B0210921A
:101CA0006C0280936D0280936802109269028093A7
:101CB0006A02809338021092390280933A0280932C
:101CC000DE011092DF018093E0018093990410926D
:101CD0009A0480939B0480933F0410924004809365
:101CE000410480939F041092A0048093A1048093E8
:101CF00072041092730480937404809348041092C9
:101D0000490480934A0480930F0410921004809336
:101D100011048093EB031092EC038093ED03809306
:101D2000090410920A0480930B0480934E041092CD
:101D30004F0480935004809366041092670480934C
:101D4000680480936F0410927004809371048093F0
:101D50009E0210929F028093A0028093D90310925A
:101D6000DA038093DB038093B6021092B70280936C
:101D7000B8028093010310920203809303038093BF
:101D80001603109217038093180380936103109237
:101D900062038093630380937603109277038093AA
:101DA00078038093C1031092C2038093C3030DC9CB
:101DB000E8EAF1E0108211821282339684E0E23D7B
:101DC000F807C1F78FEF8093690410926A0480933B
:101DD0006B0480934E0410924F04809350048093C0
:101DE0006C0410926D0480936E0480934B041092E7
:101DF0004C0480934D0480930C0410920D04809346
:101E00000E048093EB031092EC038093ED03809318
:101E10000F041092100480931104809348041092D0
:101E2000490480934A0480930E0210920F0280931B
:101E3000100280930B0210920C0280930D0280938B
:101E4000290210922A0280932B0280932C02109276
:101E50002D0280932E0280936B0210926C0280936D
:101E60006D0280938C0210928D0280938E0280937B
:101E70002F021092300280933102809368021092F8
:101E8000690280936A02809338021092390280932B
:101E90003A028093DE011092DF018093E00180938B
:101EA000990410929A0480939B0480933F041092AB
:101EB0004004809341044BCFE8EAF1E010821182A4
:101EC0001282339684E0E23DF807C1F78FEF8093EA
:101ED000690410926A0480936B0480936C041092DE
:101EE0006D0480936E0480934B0410924C04809395
:101EF0004D0480934E0410924F04809350048093BD
:101F00000C0410920D0480930E048093EB03109246
:101F1000EC038093ED0380930F04109210048093E0
:101F20001104809348041092490480934A048093DA
:101F30000E0210920F0280931002809329021092D9
:101F40002A0280932B0280930B0210920C02809342
:101F50000D0280932C0210922D0280932E0280930A
:101F60006B0210926C0280936D0280938C0210922F
:101F70008D0280938E0280932F0210923002809304
:101F80003102809368021092690280936A02809302
:101F9000DB011092DC018093DD0180933502109209
:101FA00036028093370280939C0410929D048093A4
:101FB0009E048093420410924304809344048093CF
:101FC000E2031092E3038093E4038093950210925E
:101FD0009602809397028093BF021092C002809372
:101FE000C1028093BC021092BD028093BE02809316
:101FF000B9021092BA028093BB028093B803109288
:10200000B9038093BA038093BB031092BC038093FF
:10201000BD038093BE031092BF038093C0038093DF
:10202000A1021092A2028093A3028093D603109281
:10203000D7038093D8038093FB021092FC02809315
:10204000FD0280931C0310921D0380931E03809356
:102050005B0310925C0380935D0380937C0310927A
:102060007D0380937E030C94E50790E080E0089563
:10207000FC01858596850895CF93DF9300D000D02D
:1020800000D0CDB7DEB7AB011C821D821E82DC0101
:10209000ED91FC910190F081E02D19821A821B8252
:1020A0009E012F5F3F4FBE016C5F7F4F09952696C3
:1020B0000FB6F894DEBF0FBECDBFDF91CF9108956C
:1020C000FC0101900020E9F73197AF01481B590B43
:1020D000BC018EEE94E00C949B008F929F92AF9285
:1020E000BF920F931F93CF93DF93CDB7DEB7A19726
:1020F0000FB6F894DEBF0FBECDBF19A2423008F470
:102100004AE08E010F5D1F4F842E912CB12CA12C23
:10211000A50194010E94041CE62FB901CA01EA300E
:10212000F4F4E05DD801EE938D01232B242B252BB5
:1021300079F790E080E0109719F0CD010E946010CF
:10214000A1960FB6F894DEBF0FBECDBFDF91CF9141
:102150001F910F91BF90AF909F908F900895E95C71
:10216000E1CFCF92DF92EF92FF92CF93DF936B019B
:102170007C016DE28EEE94E00E943A01EC0166274C
:102180007727CB016C197D098E099F094AE00E94CF
:102190006D108C0F9D1FDF91CF91FF90EF90DF901E
:1021A000CF900895CF93DF930E946010EC0180E4FC
:1021B00091E00E9460108C0F9D1FDF91CF910895D8
:1021C000CF93DF93BC01990F880B990B97FF0CC03D
:1021D0000E94B110EC0180E491E00E9460108C0F2D
:1021E0009D1FDF91CF9108954AE00E946D10F2CFBC
:1021F000BC01990F880B990B97FD0C94B1104AE024
:102200000C946D100E94611C1F920F920FB60F92DA
:1022100011242F933F934F935F936F937F938F93EB
:102220009F93AF93BF93EF93FF938EEE94E00E9442
:102230001901FF91EF91BF91AF919F918F917F9184
:102240006F915F914F913F912F910F900FBE0F9023
:102250001F9018951F920F920FB60F9211242F9373
:102260008F939F93EF93FF93E091FE04F091FF040F
:102270008081E0910405F091050582FD1BC09081ED
:10228000809107058F5F8F7320910805821741F0B9
:10229000E0910705F0E0E251FB4F958F8093070531
:1022A000FF91EF919F918F912F910F900FBE0F9003
:1022B0001F9018958081F4CF1F920F920FB60F9246
:1022C00011242F933F938F939F93AF93BF9380914C
:1022D0007F0190918001A0918101B09182013091A4
:1022E0007E0123E0230F2D3758F50196A11DB11D66
:1022F00020937E0180937F0190938001A0938101C0
:10230000B09382018091830190918401A091850115
:10231000B09186010196A11DB11D80938301909318
:102320008401A0938501B0938601BF91AF919F91E5
:102330008F913F912F910F900FBE0F901F90189586
:1023400026E8230F0296A11DB11DD2CFEEEEF4E0D8
:102350001382128288EE93E0A0E0B0E0848395833C
:10236000A683B78382E391E09183808385EC90E03C
:102370009587848784EC90E09787868780EC90E04F
:10238000918B808B81EC90E0938B828B82EC90E040
:10239000958B848B86EC90E0978B868B118E128EBA
:1023A000138E148EEBE8F5E08FEF8083128211829A
:1023B000148613868FEF9FEFDC0187839087A187B8
:1023C000B28708958091CD008ABD8091CE008BBDEB
:1023D00080E886BF90E496BF909162009C708093E5
:1023E00061009C3011F00C94781A91E09093610098
:1023F000000000008093F20087E98093F2008FEFE5
:102400008EBB8EB3882319F08EB38150F9CF8FEF36
:102410008EBB8EB3882319F08EB38150F9CF80E83C
:102420008093F20087EB8093F2008FEF8EBB8EB328
:10243000882319F08EB38150F9CF8FEF8EBB8EB306
:10244000882319F08EB38150F9CF80E88093610022
:1024500010926100789484B5826084BD84B58160F7
:1024600084BD85B5826085BD85B5816085BD80915F
:102470006E00816080936E001092810080918100D7
:1024800082608093810080918100816080938100CF
:10249000809180008160809380008091B100846091
:1024A0008093B1008091B00081608093B0008091F2
:1024B0007A00846080937A0080917A0082608093B1
:1024C0007A0080917A00816080937A0080917A000E
:1024D000806880937A001092C10080919A018111E6
:1024E00045C010928C0110928B018FEF80938F0169
:1024F0008093900180939101809392018093930146
:102500008093940181E0809395011092970110923D
:10251000960110928E0110928D018091E8049091A5
:10252000E904892B31F489E891E09093E9048093E0
:10253000E804E0918701F0918801309721F089E863
:1025400091E09583848389E891E09093880180935A
:10255000870110929901109298018CE191E090937B
:102560008A018093890181E080939A01539A88EAD5
:1025700091E090938C0180938B018DE091E090939A
:1025800097018093960180918E0590918F05A0917F
:102590009005B0919105843C29E09207A105B10511
:1025A00020F484EC99E0A0E0B0E080938E05909355
:1025B0008F05A0939005B0939105809100018093C1
:1025C0008B05E091FE04F091FF0482E08083E091AE
:1025D000FA04F091FB041082E091FC04F091FD04F8
:1025E0008FEC808310920605E0910205F0910305BF
:1025F00086E08083E0910005F09101058081806193
:102600008083E0910005F0910105808188608083DE
:10261000E0910005F0910105808180688083E09160
:102620000005F091010580818F7D8083AAE2B1E0F1
:102630008D9190E0FC01E254FF4F24918D559F4F06
:10264000FC0184918823C9F090E0880F991FFC0158
:10265000E956FF4F45915491FC01E557FF4FC59155
:10266000D4919FB7F894FA013081822F809583230B
:102670008083E8812E2B28839FBFF1E0AE32BF0715
:10268000B9F60E9489060E9442026093DD047093AD
:10269000DE048093DF049093E004C8EAD1E095E083
:1026A000C92E92E0D92E8E012EE1E22EF12C8091DE
:1026B000A6019091A4012091A201F80120839183A9
:1026C00082830E944E02F092A301E092A201F09256
:1026D000A701E092A60168E270E080E090E00E942D
:1026E00010020D5F1F4FC016D10609F764EF71E0AD
:1026F00080E090E00E9410021092A3011092A201CB
:102700001092A5011092A4011092A7011092A601A7
:102710000FE611E08091A6019091A4012091A20101
:102720002EAB9FAB88AF0E944E0223970C171D075C
:1027300089F768E270E080E090E00E9410028FEF7D
:1027400090E09093A3018093A2011092A5011092B2
:10275000A4019093A7018093A6010E947E068FEFAB
:102760008093CC011092CD018093CE018093CF0154
:102770001092D0018093D1018093D2011092D301A5
:102780008093D4018093D5011092D6018093D70114
:102790008093D8011092D9018093DA01809371025D
:1027A000109272028093730280936E0210926F02F5
:1027B0008093700280936B0210926C0280936D0282
:1027C000809368021092690280936A028093650286
:1027D000109266028093670280930B0210920C02A3
:1027E00080930D0280932C0210922D0280932E0272
:1027F0008093D1021092D2028093D3028093CE02B2
:102800001092CF028093D0028093CB021092CC0220
:102810008093CD028093C8021092C9028093CA02AD
:102820008093C5021092C6028093C7028093F20281
:102830001092F3028093F4028093250310922603F2
:1028400080932703809391031092920380939303C4
:1028500080938E0310928F038093900380938B0359
:1028600010928C0380938D038093880310928903C8
:1028700080938A0380938503109286038093870355
:102880008093F1031092F2038093F3038093A903E2
:102890001092AA038093AB038093AC031092AD0314
:1028A0008093AE038093E8031092E9038093EA03D8
:1028B000809312041092130480931404809366048E
:1028C000109267048093680480936F0410927004E0
:1028D0008093710480937B0410927C0480937D0428
:1028E00080936C0410926D0480936E048093A50411
:1028F0001092A6048093A7048093A2041092A304CC
:102900008093A404809372041092730480937404DF
:102910000E944E026CE271E080E090E00E941002A2
:102920000E947E068091A6019091A4012091A201AF
:102930002093740290937502809376022093710223
:10294000909372028093730220936E0290936F02B1
:102950008093700220936B0290936C0280936D02BF
:10296000209368029093690280936A022093650223
:102970009093660280936702209392029093930251
:10298000809394022093C5029093C6028093C7025D
:102990002093030490930404809305042093060479
:1029A00090930704809308042093090490930A04E9
:1029B00080930B0420930C0490930D0480930E04D9
:1029C00020930F0490931004809311042093120419
:1029D00090931304809314042093E5039093E603EB
:1029E0008093E7032093B2039093B3038093B403DF
:1029F000209385039093860380938703209352034B
:102A000090935303809354032093250390932603BC
:102A1000809327032093F2029093F3028093F402B1
:102A20002093830290938402809385022093D402A2
:102A30009093D5028093D6022093E3029093E40210
:102A40008093E502209334039093350380933603FB
:102A5000209343039093440380934503209394036E
:102A600090939503809396032093A3039093A403DC
:102A70008093A5032093F4039093F5038093F603CA
:102A800020933103909332038093330320932E03DA
:102A900090932F038093300320932B0390932C0368
:102AA00080932D03209328039093290380932A0376
:102AB0002093460390934703809348032093490350
:102AC00090934A0380934B0320934C0390934D03C0
:102AD00080934E0320934F039093500380935103B0
:102AE0002093EE039093EF038093F0032093AC03C5
:102AF0009093AD038093AE03209388039093890352
:102B000080938A032093890290938A0280938B0298
:102B10002093CB029093CC028093CD022093EF02BE
:102B20009093F0028093F1022093BF029093C00231
:102B30008093C1022093F8029093F9028093FA02E5
:102B400020931F0390932003809321032093DF039E
:102B50009093E0038093E1032093B8039093B9032B
:102B60008093BA0320937F03909380038093810323
:102B7000209358039093590380935A032093220380
:102B8000909323038093240320935503909356033B
:102B90008093570320931C0390931D0380931E037F
:102BA00020935B0390935C0380935D0320935E030B
:102BB00090935F03809360032093190390931A030B
:102BC00080931B0320939E0290939F028093A00208
:102BD0002093B9029093BA028093BB022093FE0225
:102BE0009093FF02809300032093790390937A03DC
:102BF00080937B032093BE039093BF038093C00315
:102C00002093D9039093DA038093DB0320931E046F
:102C100090931F04809320042093590290935A02AA
:102C200080935B022093A1029093A2028093A3025F
:102C300020935302909354028093550220930103F2
:102C4000909302038093030320930403909305035E
:102C50008093060320937603909377038093780301
:102C60002093730390937403809375032093D6038A
:102C70009093D7038093D803209324049093250442
:102C80008093260420933304909334048093350476
:102C90000E944E026CE271E080E090E00E9410021F
:102CA0000E947E068091A6019091A4012091A2012C
:102CB0002093110290931202809313022093260214
:102CC00090932702809328022093710290937202BE
:102CD00080937302209386029093870280938802E8
:102CE0002093D1029093D2028093D3022093CC01FF
:102CF0009093CD018093CE0120930E0290930F020A
:102D00008093100220930B0290930C0280930D028B
:102D1000209308029093090280930A0220930502EF
:102D200090930602809307022093890290938A026F
:102D300080938B0220938C0290938D0280938E025D
:102D400020938F029093900280939102209392029D
:102D5000909393028093940220932C0290932D02DF
:102D600080932E0220936B0290936C0280936D02ED
:102D700020939502909396028093970220933202BB
:102D800090933302809334022093650290936602FD
:102D900080936702209302029093030280930402BF
:102DA000209398029093990280939A0220939B0219
:102DB00090939C0280939D0220939E0290939F0289
:102DC0008093A00220935F0290936002809361023F
:102DD00020933B0290933C0280933D022093FC01A0
:102DE0009093FD018093FE012093FF0190930002D8
:102DF000809301022093E1019093E2018093E3012B
:102E00002093A1029093A2028093A3022093310306
:102E100090933203809333032093490390934A03A2
:102E200080934B0320930604909307048093080437
:102E30002093EE039093EF038093F00320932B03F2
:102E400090932C0380932D0320934C0390934D0378
:102E500080934E0320938B0390938C0380938D0378
:102E60002093AC039093AD038093AE032093EB03C8
:102E70009093EC038093ED0320930C0490930D0446
:102E800080930E042093F2029093F3028093F40255
:102E900020932503909326038093270320935203C6
:102EA0009093530380935403209385039093860358
:102EB000809387032093B2039093B3038093B4036A
:102EC0002093E5039093E6038093E7032093120495
:102ED0009093130480931404209345049093460424
:102EE00080934704209388039093890380938A03F7
:102EF0002093AF039093B0038093B1032093820398
:102F000090938303809384032093B5039093B60337
:102F10008093B703209358039093590380935A03E7
:102F200020931C0390931D0380931E032093FE02A5
:102F30009093FF02809300032093B8039093B9030A
:102F40008093BA032093DC039093DD038093DE0328
:102F500020931E0490931F04809320042093360432
:102F600090933704809338040E944E026CE271E023
:102F700080E090E00E9410020E947E068091A601EF
:102F80009091A4012091A201209383029093840246
:102F90008093850220937102909372028093730252
:102FA00020932602909327028093280220931102F7
:102FB00090931202809313022093CF019093D0013B
:102FC0008093D1012093290290932A0280932B02AF
:102FD00020932C0290932D0280932E0220932F0297
:102FE0009093300280933102209332029093330207
:102FF00080933402209335029093360280933702F7
:10300000209338029093390280933A022093D5019D
:103010009093D6018093D7012093080290930902E0
:1030200080930A02209368029093690280936A0257
:1030300020938F02909390028093910220933B0201
:1030400090933C0280933D0220933E0290933F0276
:103050008093400220934102909342028093430266
:103060002093050290930602809307022093DB01D0
:103070009093DC018093DD012093DE019093DF01CA
:103080008093E0012093650290936602809367022B
:103090002093950290939602809397022093E602E4
:1030A0009093E7028093E80220932E0390932F03DE
:1030B000809330032093EF029093F0028093F1020B
:1030C0002093250390932603809327032093F802EF
:1030D0009093F9028093FA0220931F0390932003A8
:1030E00080932103209358039093590380935A03AC
:1030F00020937F0390938003809381032093B803F0
:103100009093B9038093BA032093DF039093E00375
:103110008093E10320931504909316048093170481
:1031200020934603909347038093480320934903D9
:1031300090934A0380934B0320934F039093500343
:103140008093510320934C0390934D0380934E033F
:103150002093520390935303809354032093550379
:10316000909356038093570320935B0390935C03E3
:1031700080935D0320935E0390935F0380936003CD
:103180002093610390936203809363030E944E0235
:103190006CE271E080E090E00E9410020E947E06E6
:1031A0008091A6019091A4012091A20120930E028A
:1031B00090930F02809310022093290290932A0289
:1031C00080932B0220936E0290936F028093700283
:1031D0002093890290938A0280938B022093CF01DF
:1031E0009093D0018093D1012093230290932402E5
:1031F0008093250220932602909327028093280231
:1032000020932C0290932D0280932E0220932F0264
:1032100090933002809331022093320290933302D4
:1032200080933402209335029093360280933702C4
:10323000209338029093390280933A0220933B0204
:1032400090933C0280933D0220933E0290933F0274
:103250008093400220934102909342028093430264
:103260002093F9019093FA018093FB012093DE01F2
:103270009093DF018093E001209302029093030278
:103280008093040220936502909366028093670204
:1032900020938F0290939002809391022093E902F1
:1032A0009093EA028093EB0220932E0390932F03D6
:1032B000809330032093490390934A0380934B03F8
:1032C00020938E0390938F03809390032093A90300
:1032D0009093AA038093AB032093430390934403FA
:1032E00080934503209346039093470380934803BC
:1032F00020934C0390934D0380934E0320934F03F0
:1033000090935003809351032093F2029093F30221
:103310008093F40220932503909326038093270340
:103320002093520390935303809354032093850377
:1033300090938603809387032093B2039093B30303
:103340008093B4032093B5039093B6038093B7039F
:1033500020937F03909380038093810320935B03EA
:1033600090935C0380935D032093190390931A0359
:1033700080931B0320930103909302038093030324
:1033800020931F03909320038093210320937903BC
:1033900090937A0380937B032093C1039093C2039D
:1033A0008093C3032093F5029093F6028093F70273
:1033B0000E944E026CE271E080E090E00E941002F8
:1033C0000E947E06CC24C39400E010E0CAE0D0E066
:1033D000DD24D3948AEFE82EF12C8091E104811151
:1033E00065C185E00E94A101892B61F40E9442021F
:1033F0006093D1047093D2048093D3049093D40447
:10340000D092E1048091070181119DC186E00E9464
:10341000A101892B61F40E9442026093D50470934C
:10342000D6048093D7049093D804D09207010E94C9
:1034300042028090DD049090DE04A090DF04B09002
:10344000E004681979098A099B09643671058105C8
:10345000910550F00E9442026093DD047093DE04F7
:103460008093DF049093E00487E00E94A101892B00
:1034700081F480910601882361F0109206018CE6A8
:1034800091E00E94D21064E670E080E090E00E943B
:10349000100287E00E94A101019711F4D092060169
:1034A00088E00E94A101892B81F480910501882385
:1034B00061F01092050184E791E00E94D21064E669
:1034C00070E080E090E00E94100288E00E94A1017C
:1034D000019711F4D09205010115110509F47DCF72
:1034E0000E940501882309F478CF0E94000075CF5F
:1034F00081E0809361000C942A1262537109810962
:1035000091096A3A75408105910508F00FC183E57C
:1035100091E00E94D2108091040181113FC08091FE
:10352000CF049091D00401969093D0048093CF045F
:1035300020910201309103012F5F3F4F309303012F
:10354000209302010B9724F01092D0041092CF0424
:103550008AE591E00E9460108091CF049091D004A0
:1035600001960E94E01080910201909103010B9757
:1035700024F01092030110920201809102019091B7
:103580000301019621F4D0930301C09302018091BD
:103590000201909103010E94F810C6C080910001C1
:1035A0009091010149968B3F91056CF49093010134
:1035B0008093000183E691E00E94601080910001F9
:1035C00090910101CECF1092010110920001F2CF33
:1035D00062537109810991096A3A75408105910523
:1035E00008F0E1C080910201909103012091040153
:1035F00021113DC02091CF043091D00421503109D8
:103600003093D0042093CF040197909303018093CB
:10361000020137FF04C0D093D004C093CF048AE5E1
:1036200091E00E9460108091CF049091D0040196A7
:103630000E94E0100E94890680910201909103018E
:103640000B9724F010920301109202018091020165
:1036500090910301019621F4D0930301C0930201DC
:1036600080910201909103010E94F8109CC0019684
:1036700021F4D0930301C093020180910001909145
:103680000101499797FD0DC09093010180930001BE
:1036900083E691E00E946010809100019091010109
:1036A000C7CFF0920101E0920001F2CF85E00E94C5
:1036B000A101892B09F4A6CE0E9442028090D10478
:1036C0009090D204A090D304B090D40468197909E2
:1036D0008A099B096C3DF5E07F078105910508F497
:1036E0000CCF83E491E00E94D2108091020190916E
:1036F00003010B9724F010920301109202018AE457
:1037000091E00E9460108091020190910301019666
:103710000E94E0108091020190910301019621F432
:1037200010920301109202010E9489060E94420237
:103730006093D1047093D2048093D3049093D40403
:103740001092E1045FCE86E00E94A101892B09F46A
:103750006ECE0E9442028090D5049090D604A09034
:10376000D704B090D804681979098A099B096C3D7F
:1037700025E072078105910508F42ACF83E491E0E2
:103780000E94D210809104018C25809304018091C5
:10379000020190910301019621F41092030110920D
:1037A00002010E9489060E9442026093D104709334
:1037B000D2048093D3049093D4041092070137CE9F
:1037C000DB018F939F930E94331CBF91AF91A29F07
:1037D000800D911DA39F900DB29F900D112408950F
:1037E00097FB072E16F4009407D077FD09D00E94AE
:1037F0003E1C07FC05D03EF4909581959F4F08959F
:10380000709561957F4F0895A1E21A2EAA1BBB1BEC
:10381000FD010DC0AA1FBB1FEE1FFF1FA217B3079C
:10382000E407F50720F0A21BB30BE40BF50B661FB2
:10383000771F881F991F1A9469F760957095809576
:1038400090959B01AC01BD01CF010895EE0FFF1FC4
:103850000590F491E02D09940E94521CB7FF089541
:10386000821B930B08950E94521CA59F900DB49F3C
:10387000900DA49F800D911D11240895AA1BBB1BC0
:1038800051E107C0AA1FBB1FA617B70710F0A61B60
:10389000B70B881F991F5A95A9F780959095BC0181
:1038A000CD010895A29FB001B39FC001A39F700DE9
:1038B000811D1124911DB29F700D811D1124911D38
:1038C000089581E090E0F8940C94661CF894FFCF82
:1038D0000A00FFFF010101010000000002110211B6
:1038E00002113C1038103510000000003B06F705AF
:1038F000F5053C1038109800A203050607080000E3
:1039000000003A019B00C8008101F900D700EB00DC
:103910000D0A00E995BFE68C8900E6A8A1E5BC8FF9
:103920003A2000E79FADE68C8900E9A29CE889B2C5
:103930003A2000E4BAAEE5BAA63A2000E6A8A1E52E
:0C394000BC8F4300E6A8A1E5BC8F44004A
:040000000C94003A22
:1074000011248FEF98E09EBF8DBF80E880936200CB
:107410008CE48093620094B714BE892F8D7011F0B4
:10742000892FEBD190E89093F20083E98093F200EA
:107430009093F20087E98093F2008FEF03C0000081
:107440008EB381508EBB8EB38823C9F790E890939A
:10745000F20087EB8093F20090936100109261003C
:1074600096BF80E486BF85E08093810088E18093A9
:10747000C10086E08093C20080E18093C4008CE06C
:10748000A6D1259A96E020E33CEF51E040E230930C
:1074900085002093840056BBB09BFECF85B1842726
:1074A00085B9A895915099F7882499245401CC2442
:1074B000DD2464E9662E51E0252E312C412C512C1F
:1074C00075D1813461F472D1182F87D1123829F126
:1074D000113811F485E001C083E060D15CC18234D1
:1074E00011F484E103C0853419F485E07ED153C1E1
:1074F000853579F45BD1E82EFF2458D1082F10E0B0
:10750000102F00270E291F29000F111F66D16801B7
:1075100042C1863521F484E068D180E0DECF843634
:1075200009F0BDC043D190E0F82EEE243FD1E80E23
:10753000F11C3CD1782EE70100E011E037D1F801D1
:1075400081938F012197D1F711BC8D2D992782BD91
:1075500082B586958695282FD501C401022E04C0D8
:10756000B695A795979587950A94D2F780FD15C093
:10757000F6E47F1691F4D201C10104C0880F991F6F
:10758000AA1FBB1F2A95D2F7882A992AAA2ABB2AA2
:107590006FBA82E98FBB000000001FD1E5E47E16C0
:1075A000B1F4960110C021BD2F5F3F4F832F992763
:1075B00082BDC050DF4F888180BDF4E0FFBB82E018
:1075C0008FBBCF5FD040CE15DF0568F3D3C0C114A9
:1075D000D10409F04EC06091000170910101872F24
:1075E00090E0982F8827262F30E0822B932B9093C2
:1075F0008501809384014091020150910301852F00
:1076000090E0982F8827242F30E0822B932B9093A3
:10761000870180938601209118018091190190E0E3
:10762000982F882730E0822B932B909389018093A9
:10763000880120911A0180911B0190E0982F8827E2
:1076400030E0822B932B90938B0180938A0160937F
:1076500018017093190140931A0150931B018CE09B
:10766000809300016092010110920201EAE3E0932D
:107670000301E0E0F1E011BC808180BD81E081BDCB
:10768000818180BD8E2F8C0D81BD84EA8FBB82EA03
:107690008FBB329681E0E038F80769F77CC0843709
:1076A00009F06BC083D090E0F82EEE247FD0E80E76
:1076B000F11C7CD0182F91D0153489F4E601870194
:1076C000C1BD21968D2F992782BDE1E0EFBB00005F
:1076D000000080B563D00150104091F74BC0E60127
:1076E0008701209729F480918401909185013CC005
:1076F000C130D10529F480918401909185010FC09A
:10770000C230D10529F480918601909187012CC067
:10771000C330D10539F48091860190918701892F7A
:10772000992722C0C831D10529F480918801909110
:1077300089011AC0C931D10529F48091880190913D
:107740008901EDCFCA31D10529F480918A01909148
:107750008B010AC0CB31D10529F480918A01909127
:107760008B01DDCFFE018491219618D0015010408D
:1077700009F0B7CFCE0CDF1C0EC0853739F42DD001
:107780008EE10CD085E90AD08FE0A7CE813511F4C7
:107790008CE01DD022D080E101D092CE982F809134
:1077A000C00085FFFCCF9093C60008958091C00073
:1077B00087FFFCCF8091C00084FD01C0A895809117
:1077C000C60008959AE29A95F1F708950895E0E6C3
:1077D000F0E098E1908380830895E8DF803219F02B
:1077E0008CE0F5DFFFCF84E1D9CF1F93182FDEDFC8
:1077F0001150E9F7F2DF1F910895282E80E0E7DFAE
:06780000ECE0FF270994F3
:0277FE00000584
:040000030000740085
:00000001FF
